{
    "contractName": "Balot",
    "abi": [
        {
            "inputs": [
                {
                    "internalType": "bytes32[]",
                    "name": "proposalName",
                    "type": "bytes32[]"
                }
            ],
            "stateMutability": "nonpayable",
            "type": "constructor"
        },
        {
            "inputs": [],
            "name": "chairPerson",
            "outputs": [
                {
                    "internalType": "address",
                    "name": "",
                    "type": "address"
                }
            ],
            "stateMutability": "view",
            "type": "function"
        },
        {
            "inputs": [
                {
                    "internalType": "address",
                    "name": "to",
                    "type": "address"
                }
            ],
            "name": "delegate",
            "outputs": [],
            "stateMutability": "nonpayable",
            "type": "function"
        },
        {
            "inputs": [
                {
                    "internalType": "address",
                    "name": "voter",
                    "type": "address"
                }
            ],
            "name": "givingRightToVote",
            "outputs": [],
            "stateMutability": "nonpayable",
            "type": "function"
        },
        {
            "inputs": [
                {
                    "internalType": "uint256",
                    "name": "",
                    "type": "uint256"
                }
            ],
            "name": "proposals",
            "outputs": [
                {
                    "internalType": "bytes32",
                    "name": "name",
                    "type": "bytes32"
                },
                {
                    "internalType": "uint256",
                    "name": "voteCount",
                    "type": "uint256"
                }
            ],
            "stateMutability": "view",
            "type": "function"
        },
        {
            "inputs": [
                {
                    "internalType": "uint256",
                    "name": "proposal",
                    "type": "uint256"
                }
            ],
            "name": "vote",
            "outputs": [],
            "stateMutability": "nonpayable",
            "type": "function"
        },
        {
            "inputs": [
                {
                    "internalType": "address",
                    "name": "",
                    "type": "address"
                }
            ],
            "name": "voters",
            "outputs": [
                {
                    "internalType": "uint256",
                    "name": "weight",
                    "type": "uint256"
                },
                {
                    "internalType": "uint256",
                    "name": "vote",
                    "type": "uint256"
                },
                {
                    "internalType": "bool",
                    "name": "voted",
                    "type": "bool"
                },
                {
                    "internalType": "address",
                    "name": "delegate",
                    "type": "address"
                }
            ],
            "stateMutability": "view",
            "type": "function"
        },
        {
            "inputs": [],
            "name": "winningProposal",
            "outputs": [
                {
                    "internalType": "uint256",
                    "name": "winningProposal_",
                    "type": "uint256"
                }
            ],
            "stateMutability": "view",
            "type": "function"
        }
    ],
    "bytecode": "608060405234801561001057600080fd5b506040516109f73803806109f783398101604081905261002f91610153565b600080546001600160a01b03191633908117825581526001602081905260408220555b81518110156100c5576002604051806040016040528084848151811061007a5761007a610210565b602090810291909101810151825260009181018290528354600181810186559483529181902083516002909302019182559190910151910155806100bd81610226565b915050610052565b506000546001600160a01b031633146101375760405162461bcd60e51b815260206004820152602a60248201527f4f6e6c7920546865204368616972506572736f6e206861732074686520526967604482015269687420546f20566f746560b01b606482015260840160405180910390fd5b5061024d565b634e487b7160e01b600052604160045260246000fd5b6000602080838503121561016657600080fd5b82516001600160401b038082111561017d57600080fd5b818501915085601f83011261019157600080fd5b8151818111156101a3576101a361013d565b8060051b604051601f19603f830116810181811085821117156101c8576101c861013d565b6040529182528482019250838101850191888311156101e657600080fd5b938501935b82851015610204578451845293850193928501926101eb565b98975050505050505050565b634e487b7160e01b600052603260045260246000fd5b60006001820161024657634e487b7160e01b600052601160045260246000fd5b5060010190565b61079b8061025c6000396000f3fe608060405234801561001057600080fd5b506004361061007d5760003560e01c80635c19a95c1161005b5780635c19a95c146100d7578063609ff1bd146100ea578063a3ec138d14610100578063d4d4b5ac1461017057600080fd5b80630121b93f14610082578063013cf08b1461009757806309e22c6a146100c4575b600080fd5b6100956100903660046106be565b61019b565b005b6100aa6100a53660046106be565b610295565b604080519283526020830191909152015b60405180910390f35b6100956100d23660046106d7565b6102c3565b6100956100e53660046106d7565b6103db565b6100f2610641565b6040519081526020016100bb565b61014161010e3660046106d7565b600160208190526000918252604090912080549181015460029091015460ff81169061010090046001600160a01b031684565b604080519485526020850193909352901515918301919091526001600160a01b031660608201526080016100bb565b600054610183906001600160a01b031681565b6040516001600160a01b0390911681526020016100bb565b33600090815260016020526040812080549091036101f75760405162461bcd60e51b8152602060048201526014602482015273486173206e6f20726967687420746f20766f746560601b60448201526064015b60405180910390fd5b600281015460ff161561023d5760405162461bcd60e51b815260206004820152600e60248201526d20b63932b0b23c903b37ba32b21760911b60448201526064016101ee565b6002808201805460ff191660019081179091558201839055815481549091908490811061026c5761026c610707565b9060005260206000209060020201600101600082825461028c9190610733565b90915550505050565b600281815481106102a557600080fd5b60009182526020909120600290910201805460019091015490915082565b6000546001600160a01b0316331461032f5760405162461bcd60e51b815260206004820152602960248201527f4f6e6c792061204368616972506572736f6e2063616e206769766520526967686044820152687420746f20566f746560b81b60648201526084016101ee565b6001600160a01b03811660009081526001602052604090206002015460ff161561039b5760405162461bcd60e51b815260206004820152601860248201527f5468697320566f74657220416c726561647920566f746564000000000000000060448201526064016101ee565b6001600160a01b038116600090815260016020526040902054156103be57600080fd5b6001600160a01b0316600090815260016020819052604090912055565b336000908152600160205260408120805490910361043b5760405162461bcd60e51b815260206004820152601960248201527f596f752068617665206e6f20726967687420746f20766f74650000000000000060448201526064016101ee565b600281015460ff16156104855760405162461bcd60e51b81526020600482015260126024820152712cb7ba9030b63932b0b23c903b37ba32b21760711b60448201526064016101ee565b336001600160a01b038316036104dd5760405162461bcd60e51b815260206004820152601e60248201527f53656c662d64656c65676174696f6e20697320646973616c6c6f7765642e000060448201526064016101ee565b6001600160a01b038281166000908152600160205260409020600201546101009004161561057f576001600160a01b0391821660009081526001602052604090206002015461010090049091169033820361057a5760405162461bcd60e51b815260206004820152601960248201527f466f756e64206c6f6f7020696e2064656c65676174696f6e2e0000000000000060448201526064016101ee565b6104dd565b6001600160a01b03821660009081526001602081905260409091208054909111156105a957600080fd5b600280830180546001600160a01b038616610100026001600160a81b031990911617600117905581015460ff161561062257816000015460028260010154815481106105f7576105f7610707565b906000526020600020906002020160010160008282546106179190610733565b9091555061063c9050565b815481548290600090610636908490610733565b90915550505b505050565b600080805b6002548110156106b957816002828154811061066457610664610707565b90600052602060002090600202016001015411156106a7576002818154811061068f5761068f610707565b90600052602060002090600202016001015491508092505b806106b18161074c565b915050610646565b505090565b6000602082840312156106d057600080fd5b5035919050565b6000602082840312156106e957600080fd5b81356001600160a01b038116811461070057600080fd5b9392505050565b634e487b7160e01b600052603260045260246000fd5b634e487b7160e01b600052601160045260246000fd5b808201808211156107465761074661071d565b92915050565b60006001820161075e5761075e61071d565b506001019056fea2646970667358221220e1417d5dabeea996cccaa8064e52cb7a56b7fd13e7734a7d8e68f5ce3d06252164736f6c63430008110033",
    "sourcePath": "/Users/brightaugustino/Desktop/My Projects/Solidity-Practice/Contract/Voting.sol",
    "compiler": {
        "name": "solc",
        "version": "0.8.17+commit.8df45f5f"
    },
    "functionHashes": {
        "chairPerson()": "d4d4b5ac",
        "delegate(address)": "5c19a95c",
        "givingRightToVote(address)": "09e22c6a",
        "proposals(uint256)": "013cf08b",
        "vote(uint256)": "0121b93f",
        "voters(address)": "a3ec138d",
        "winningProposal()": "609ff1bd"
    },
    "gasEstimates": {
        "creation": {
            "codeDepositCost": "389400",
            "executionCost": "infinite",
            "totalCost": "infinite"
        },
        "external": {
            "chairPerson()": "2403",
            "delegate(address)": "infinite",
            "givingRightToVote(address)": "29074",
            "proposals(uint256)": "6743",
            "vote(uint256)": "79515",
            "voters(address)": "6895",
            "winningProposal()": "infinite"
        }
    }
}