{
    "contractName": "Balot",
    "abi": [
        {
            "inputs": [
                {
                    "internalType": "bytes32[]",
                    "name": "proposalName",
                    "type": "bytes32[]"
                }
            ],
            "stateMutability": "nonpayable",
            "type": "constructor"
        },
        {
            "inputs": [],
            "name": "chairPerson",
            "outputs": [
                {
                    "internalType": "address",
                    "name": "",
                    "type": "address"
                }
            ],
            "stateMutability": "view",
            "type": "function"
        },
        {
            "inputs": [
                {
                    "internalType": "uint256",
                    "name": "",
                    "type": "uint256"
                }
            ],
            "name": "proposals",
            "outputs": [
                {
                    "internalType": "bytes32",
                    "name": "name",
                    "type": "bytes32"
                },
                {
                    "internalType": "uint256",
                    "name": "voteCount",
                    "type": "uint256"
                }
            ],
            "stateMutability": "view",
            "type": "function"
        },
        {
            "inputs": [
                {
                    "internalType": "address",
                    "name": "",
                    "type": "address"
                }
            ],
            "name": "voters",
            "outputs": [
                {
                    "internalType": "uint256",
                    "name": "weight",
                    "type": "uint256"
                },
                {
                    "internalType": "uint256",
                    "name": "vote",
                    "type": "uint256"
                },
                {
                    "internalType": "bool",
                    "name": "voted",
                    "type": "bool"
                },
                {
                    "internalType": "address",
                    "name": "delegate",
                    "type": "address"
                }
            ],
            "stateMutability": "view",
            "type": "function"
        }
    ],
    "bytecode": "608060405234801561001057600080fd5b506040516103a63803806103a683398101604081905261002f916100e2565b600080546001600160a01b03191633908117825581526001602081905260408220555b81518110156100c5576002604051806040016040528084848151811061007a5761007a61019f565b602090810291909101810151825260009181018290528354600181810186559483529181902083516002909302019182559190910151910155806100bd816101b5565b915050610052565b50506101dc565b634e487b7160e01b600052604160045260246000fd5b600060208083850312156100f557600080fd5b82516001600160401b038082111561010c57600080fd5b818501915085601f83011261012057600080fd5b815181811115610132576101326100cc565b8060051b604051601f19603f83011681018181108582111715610157576101576100cc565b60405291825284820192508381018501918883111561017557600080fd5b938501935b828510156101935784518452938501939285019261017a565b98975050505050505050565b634e487b7160e01b600052603260045260246000fd5b6000600182016101d557634e487b7160e01b600052601160045260246000fd5b5060010190565b6101bb806101eb6000396000f3fe608060405234801561001057600080fd5b50600436106100415760003560e01c8063013cf08b14610046578063a3ec138d14610073578063d4d4b5ac146100e3575b600080fd5b61005961005436600461013c565b61010e565b604080519283526020830191909152015b60405180910390f35b6100b4610081366004610155565b600160208190526000918252604090912080549181015460029091015460ff81169061010090046001600160a01b031684565b604080519485526020850193909352901515918301919091526001600160a01b0316606082015260800161006a565b6000546100f6906001600160a01b031681565b6040516001600160a01b03909116815260200161006a565b6002818154811061011e57600080fd5b60009182526020909120600290910201805460019091015490915082565b60006020828403121561014e57600080fd5b5035919050565b60006020828403121561016757600080fd5b81356001600160a01b038116811461017e57600080fd5b939250505056fea2646970667358221220b887af7130cc9a0ad59ce17c8c4201d91e7deb3e2fe388c5a4452bf2d57856e464736f6c63430008110033",
    "sourcePath": "/Users/brightaugustino/Desktop/My Projects/Solidity-Practice/Contract/Voting.sol",
    "compiler": {
        "name": "solc",
        "version": "0.8.17+commit.8df45f5f"
    },
    "functionHashes": {
        "chairPerson()": "d4d4b5ac",
        "proposals(uint256)": "013cf08b",
        "voters(address)": "a3ec138d"
    },
    "gasEstimates": {
        "creation": {
            "codeDepositCost": "88600",
            "executionCost": "infinite",
            "totalCost": "infinite"
        },
        "external": {
            "chairPerson()": "2359",
            "proposals(uint256)": "6698",
            "voters(address)": "6851"
        }
    }
}