{
    "contractName": "Balot",
    "abi": [
        {
            "inputs": [
                {
                    "internalType": "bytes32[]",
                    "name": "proposalName",
                    "type": "bytes32[]"
                }
            ],
            "stateMutability": "nonpayable",
            "type": "constructor"
        },
        {
            "inputs": [],
            "name": "chairPerson",
            "outputs": [
                {
                    "internalType": "address",
                    "name": "",
                    "type": "address"
                }
            ],
            "stateMutability": "view",
            "type": "function"
        },
        {
            "inputs": [
                {
                    "internalType": "address",
                    "name": "to",
                    "type": "address"
                }
            ],
            "name": "delegate",
            "outputs": [],
            "stateMutability": "nonpayable",
            "type": "function"
        },
        {
            "inputs": [
                {
                    "internalType": "address",
                    "name": "voter",
                    "type": "address"
                }
            ],
            "name": "givingRightToVote",
            "outputs": [],
            "stateMutability": "nonpayable",
            "type": "function"
        },
        {
            "inputs": [
                {
                    "internalType": "uint256",
                    "name": "",
                    "type": "uint256"
                }
            ],
            "name": "proposals",
            "outputs": [
                {
                    "internalType": "bytes32",
                    "name": "name",
                    "type": "bytes32"
                },
                {
                    "internalType": "uint256",
                    "name": "voteCount",
                    "type": "uint256"
                }
            ],
            "stateMutability": "view",
            "type": "function"
        },
        {
            "inputs": [
                {
                    "internalType": "uint256",
                    "name": "proposal_v",
                    "type": "uint256"
                }
            ],
            "name": "vote",
            "outputs": [],
            "stateMutability": "nonpayable",
            "type": "function"
        },
        {
            "inputs": [
                {
                    "internalType": "address",
                    "name": "",
                    "type": "address"
                }
            ],
            "name": "voters",
            "outputs": [
                {
                    "internalType": "uint256",
                    "name": "weight",
                    "type": "uint256"
                },
                {
                    "internalType": "uint256",
                    "name": "vote",
                    "type": "uint256"
                },
                {
                    "internalType": "bool",
                    "name": "voted",
                    "type": "bool"
                },
                {
                    "internalType": "address",
                    "name": "delegate",
                    "type": "address"
                }
            ],
            "stateMutability": "view",
            "type": "function"
        },
        {
            "inputs": [],
            "name": "winnerName",
            "outputs": [
                {
                    "internalType": "bytes32",
                    "name": "winnerName_",
                    "type": "bytes32"
                }
            ],
            "stateMutability": "view",
            "type": "function"
        },
        {
            "inputs": [],
            "name": "winningProposal",
            "outputs": [
                {
                    "internalType": "uint256",
                    "name": "winningProposal_",
                    "type": "uint256"
                }
            ],
            "stateMutability": "view",
            "type": "function"
        }
    ],
    "bytecode": "608060405234801561001057600080fd5b50604051610a3d380380610a3d83398101604081905261002f91610153565b600080546001600160a01b03191633908117825581526001602081905260408220555b81518110156100c5576002604051806040016040528084848151811061007a5761007a610210565b602090810291909101810151825260009181018290528354600181810186559483529181902083516002909302019182559190910151910155806100bd81610226565b915050610052565b506000546001600160a01b031633146101375760405162461bcd60e51b815260206004820152602a60248201527f4f6e6c7920546865204368616972506572736f6e206861732074686520526967604482015269687420546f20566f746560b01b606482015260840160405180910390fd5b5061024d565b634e487b7160e01b600052604160045260246000fd5b6000602080838503121561016657600080fd5b82516001600160401b038082111561017d57600080fd5b818501915085601f83011261019157600080fd5b8151818111156101a3576101a361013d565b8060051b604051601f19603f830116810181811085821117156101c8576101c861013d565b6040529182528482019250838101850191888311156101e657600080fd5b938501935b82851015610204578451845293850193928501926101eb565b98975050505050505050565b634e487b7160e01b600052603260045260246000fd5b60006001820161024657634e487b7160e01b600052601160045260246000fd5b5060010190565b6107e18061025c6000396000f3fe608060405234801561001057600080fd5b50600436106100885760003560e01c8063609ff1bd1161005b578063609ff1bd146100f5578063a3ec138d1461010b578063d4d4b5ac1461017b578063e2ba53f0146101a657600080fd5b80630121b93f1461008d578063013cf08b146100a257806309e22c6a146100cf5780635c19a95c146100e2575b600080fd5b6100a061009b366004610704565b6101ae565b005b6100b56100b0366004610704565b6102a8565b604080519283526020830191909152015b60405180910390f35b6100a06100dd36600461071d565b6102d6565b6100a06100f036600461071d565b6103ee565b6100fd610654565b6040519081526020016100c6565b61014c61011936600461071d565b600160208190526000918252604090912080549181015460029091015460ff81169061010090046001600160a01b031684565b604080519485526020850193909352901515918301919091526001600160a01b031660608201526080016100c6565b60005461018e906001600160a01b031681565b6040516001600160a01b0390911681526020016100c6565b6100fd6106d1565b336000908152600160205260408120805490910361020a5760405162461bcd60e51b8152602060048201526014602482015273486173206e6f20726967687420746f20766f746560601b60448201526064015b60405180910390fd5b600281015460ff16156102505760405162461bcd60e51b815260206004820152600e60248201526d20b63932b0b23c903b37ba32b21760911b6044820152606401610201565b6002808201805460ff191660019081179091558201839055815481549091908490811061027f5761027f61074d565b9060005260206000209060020201600101600082825461029f9190610779565b90915550505050565b600281815481106102b857600080fd5b60009182526020909120600290910201805460019091015490915082565b6000546001600160a01b031633146103425760405162461bcd60e51b815260206004820152602960248201527f4f6e6c792061204368616972506572736f6e2063616e206769766520526967686044820152687420746f20566f746560b81b6064820152608401610201565b6001600160a01b03811660009081526001602052604090206002015460ff16156103ae5760405162461bcd60e51b815260206004820152601860248201527f5468697320566f74657220416c726561647920566f74656400000000000000006044820152606401610201565b6001600160a01b038116600090815260016020526040902054156103d157600080fd5b6001600160a01b0316600090815260016020819052604090912055565b336000908152600160205260408120805490910361044e5760405162461bcd60e51b815260206004820152601960248201527f596f752068617665206e6f20726967687420746f20766f7465000000000000006044820152606401610201565b600281015460ff16156104985760405162461bcd60e51b81526020600482015260126024820152712cb7ba9030b63932b0b23c903b37ba32b21760711b6044820152606401610201565b336001600160a01b038316036104f05760405162461bcd60e51b815260206004820152601e60248201527f53656c662d64656c65676174696f6e20697320646973616c6c6f7765642e00006044820152606401610201565b6001600160a01b0382811660009081526001602052604090206002015461010090041615610592576001600160a01b0391821660009081526001602052604090206002015461010090049091169033820361058d5760405162461bcd60e51b815260206004820152601960248201527f466f756e64206c6f6f7020696e2064656c65676174696f6e2e000000000000006044820152606401610201565b6104f0565b6001600160a01b03821660009081526001602081905260409091208054909111156105bc57600080fd5b600280830180546001600160a01b038616610100026001600160a81b031990911617600117905581015460ff1615610635578160000154600282600101548154811061060a5761060a61074d565b9060005260206000209060020201600101600082825461062a9190610779565b9091555061064f9050565b815481548290600090610649908490610779565b90915550505b505050565b600080805b6002548110156106cc5781600282815481106106775761067761074d565b90600052602060002090600202016001015411156106ba57600281815481106106a2576106a261074d565b90600052602060002090600202016001015491508092505b806106c481610792565b915050610659565b505090565b600060026106dd610654565b815481106106ed576106ed61074d565b906000526020600020906002020160000154905090565b60006020828403121561071657600080fd5b5035919050565b60006020828403121561072f57600080fd5b81356001600160a01b038116811461074657600080fd5b9392505050565b634e487b7160e01b600052603260045260246000fd5b634e487b7160e01b600052601160045260246000fd5b8082018082111561078c5761078c610763565b92915050565b6000600182016107a4576107a4610763565b506001019056fea26469706673582212206977bc62311773e7f79e0589dfe4662ad4fc09de92baad7a1efa31c55a872c3164736f6c63430008110033",
    "sourcePath": "/Users/brightaugustino/Desktop/My Projects/Solidity-Practice/Contract/Voting.sol",
    "compiler": {
        "name": "solc",
        "version": "0.8.17+commit.8df45f5f"
    },
    "functionHashes": {
        "chairPerson()": "d4d4b5ac",
        "delegate(address)": "5c19a95c",
        "givingRightToVote(address)": "09e22c6a",
        "proposals(uint256)": "013cf08b",
        "vote(uint256)": "0121b93f",
        "voters(address)": "a3ec138d",
        "winnerName()": "e2ba53f0",
        "winningProposal()": "609ff1bd"
    },
    "gasEstimates": {
        "creation": {
            "codeDepositCost": "403400",
            "executionCost": "infinite",
            "totalCost": "infinite"
        },
        "external": {
            "chairPerson()": "2381",
            "delegate(address)": "infinite",
            "givingRightToVote(address)": "29074",
            "proposals(uint256)": "6743",
            "vote(uint256)": "79515",
            "voters(address)": "6873",
            "winnerName()": "infinite",
            "winningProposal()": "infinite"
        }
    }
}