{
    "contractName": "Balot",
    "abi": [
        {
            "inputs": [
                {
                    "internalType": "bytes32[]",
                    "name": "proposalName",
                    "type": "bytes32[]"
                }
            ],
            "stateMutability": "nonpayable",
            "type": "constructor"
        },
        {
            "inputs": [],
            "name": "chairPerson",
            "outputs": [
                {
                    "internalType": "address",
                    "name": "",
                    "type": "address"
                }
            ],
            "stateMutability": "view",
            "type": "function"
        },
        {
            "inputs": [
                {
                    "internalType": "address",
                    "name": "to",
                    "type": "address"
                }
            ],
            "name": "delegate",
            "outputs": [],
            "stateMutability": "nonpayable",
            "type": "function"
        },
        {
            "inputs": [
                {
                    "internalType": "address",
                    "name": "voter",
                    "type": "address"
                }
            ],
            "name": "givingRightToVote",
            "outputs": [],
            "stateMutability": "nonpayable",
            "type": "function"
        },
        {
            "inputs": [
                {
                    "internalType": "uint256",
                    "name": "",
                    "type": "uint256"
                }
            ],
            "name": "proposals",
            "outputs": [
                {
                    "internalType": "bytes32",
                    "name": "name",
                    "type": "bytes32"
                },
                {
                    "internalType": "uint256",
                    "name": "voteCount",
                    "type": "uint256"
                }
            ],
            "stateMutability": "view",
            "type": "function"
        },
        {
            "inputs": [
                {
                    "internalType": "address",
                    "name": "",
                    "type": "address"
                }
            ],
            "name": "voters",
            "outputs": [
                {
                    "internalType": "uint256",
                    "name": "weight",
                    "type": "uint256"
                },
                {
                    "internalType": "uint256",
                    "name": "vote",
                    "type": "uint256"
                },
                {
                    "internalType": "bool",
                    "name": "voted",
                    "type": "bool"
                },
                {
                    "internalType": "address",
                    "name": "delegate",
                    "type": "address"
                }
            ],
            "stateMutability": "view",
            "type": "function"
        }
    ],
    "bytecode": "608060405234801561001057600080fd5b5060405161081538038061081583398101604081905261002f91610153565b600080546001600160a01b03191633908117825581526001602081905260408220555b81518110156100c5576002604051806040016040528084848151811061007a5761007a610210565b602090810291909101810151825260009181018290528354600181810186559483529181902083516002909302019182559190910151910155806100bd81610226565b915050610052565b506000546001600160a01b031633146101375760405162461bcd60e51b815260206004820152602a60248201527f4f6e6c7920546865204368616972506572736f6e206861732074686520526967604482015269687420546f20566f746560b01b606482015260840160405180910390fd5b5061024d565b634e487b7160e01b600052604160045260246000fd5b6000602080838503121561016657600080fd5b82516001600160401b038082111561017d57600080fd5b818501915085601f83011261019157600080fd5b8151818111156101a3576101a361013d565b8060051b604051601f19603f830116810181811085821117156101c8576101c861013d565b6040529182528482019250838101850191888311156101e657600080fd5b938501935b82851015610204578451845293850193928501926101eb565b98975050505050505050565b634e487b7160e01b600052603260045260246000fd5b60006001820161024657634e487b7160e01b600052601160045260246000fd5b5060010190565b6105b98061025c6000396000f3fe608060405234801561001057600080fd5b50600436106100575760003560e01c8063013cf08b1461005c57806309e22c6a146100895780635c19a95c1461009e578063a3ec138d146100b1578063d4d4b5ac14610121575b600080fd5b61006f61006a3660046104fd565b61014c565b604080519283526020830191909152015b60405180910390f35b61009c610097366004610516565b61017a565b005b61009c6100ac366004610516565b610297565b6100f26100bf366004610516565b600160208190526000918252604090912080549181015460029091015460ff81169061010090046001600160a01b031684565b604080519485526020850193909352901515918301919091526001600160a01b03166060820152608001610080565b600054610134906001600160a01b031681565b6040516001600160a01b039091168152602001610080565b6002818154811061015c57600080fd5b60009182526020909120600290910201805460019091015490915082565b6000546001600160a01b031633146101eb5760405162461bcd60e51b815260206004820152602960248201527f4f6e6c792061204368616972506572736f6e2063616e206769766520526967686044820152687420746f20566f746560b81b60648201526084015b60405180910390fd5b6001600160a01b03811660009081526001602052604090206002015460ff16156102575760405162461bcd60e51b815260206004820152601860248201527f5468697320566f74657220416c726561647920566f746564000000000000000060448201526064016101e2565b6001600160a01b0381166000908152600160205260409020541561027a57600080fd5b6001600160a01b0316600090815260016020819052604090912055565b33600090815260016020526040812080549091036102f75760405162461bcd60e51b815260206004820152601960248201527f596f752068617665206e6f20726967687420746f20766f74650000000000000060448201526064016101e2565b600281015460ff16156103415760405162461bcd60e51b81526020600482015260126024820152712cb7ba9030b63932b0b23c903b37ba32b21760711b60448201526064016101e2565b336001600160a01b038316036103995760405162461bcd60e51b815260206004820152601e60248201527f53656c662d64656c65676174696f6e20697320646973616c6c6f7765642e000060448201526064016101e2565b6001600160a01b038281166000908152600160205260409020600201546101009004161561043b576001600160a01b039182166000908152600160205260409020600201546101009004909116903382036104365760405162461bcd60e51b815260206004820152601960248201527f466f756e64206c6f6f7020696e2064656c65676174696f6e2e0000000000000060448201526064016101e2565b610399565b6001600160a01b038216600090815260016020819052604090912080549091111561046557600080fd5b600280830180546001600160a01b038616610100026001600160a81b031990911617600117905581015460ff16156104de57816000015460028260010154815481106104b3576104b3610546565b906000526020600020906002020160010160008282546104d3919061055c565b909155506104f89050565b8154815482906000906104f290849061055c565b90915550505b505050565b60006020828403121561050f57600080fd5b5035919050565b60006020828403121561052857600080fd5b81356001600160a01b038116811461053f57600080fd5b9392505050565b634e487b7160e01b600052603260045260246000fd5b8082018082111561057d57634e487b7160e01b600052601160045260246000fd5b9291505056fea2646970667358221220945788aaf403ab11da26cceef3eddb7c3f1198a6702a3744b5ba61a3d007b9b864736f6c63430008110033",
    "sourcePath": "/Users/brightaugustino/Desktop/My Projects/Solidity-Practice/Contract/Voting.sol",
    "compiler": {
        "name": "solc",
        "version": "0.8.17+commit.8df45f5f"
    },
    "functionHashes": {
        "chairPerson()": "d4d4b5ac",
        "delegate(address)": "5c19a95c",
        "givingRightToVote(address)": "09e22c6a",
        "proposals(uint256)": "013cf08b",
        "voters(address)": "a3ec138d"
    },
    "gasEstimates": {
        "creation": {
            "codeDepositCost": "293000",
            "executionCost": "infinite",
            "totalCost": "infinite"
        },
        "external": {
            "chairPerson()": "2403",
            "delegate(address)": "infinite",
            "givingRightToVote(address)": "29029",
            "proposals(uint256)": "6698",
            "voters(address)": "6895"
        }
    }
}